{
  "contractName": "firmTrade",
  "abi": [
    {
      "constant": true,
      "inputs": [
        {
          "name": "",
          "type": "uint256"
        }
      ],
      "name": "lcReqMapping",
      "outputs": [
        {
          "name": "productId",
          "type": "uint256"
        },
        {
          "name": "exporterBankName",
          "type": "string"
        },
        {
          "name": "exporterBankAddr",
          "type": "address"
        },
        {
          "name": "importerBankName",
          "type": "string"
        },
        {
          "name": "importerBankAddr",
          "type": "address"
        },
        {
          "name": "totalAmount",
          "type": "uint256"
        }
      ],
      "payable": false,
      "stateMutability": "view",
      "type": "function"
    },
    {
      "constant": true,
      "inputs": [],
      "name": "impCustAddress",
      "outputs": [
        {
          "name": "",
          "type": "address"
        }
      ],
      "payable": false,
      "stateMutability": "view",
      "type": "function"
    },
    {
      "constant": true,
      "inputs": [],
      "name": "impAddress",
      "outputs": [
        {
          "name": "",
          "type": "address"
        }
      ],
      "payable": false,
      "stateMutability": "view",
      "type": "function"
    },
    {
      "constant": true,
      "inputs": [
        {
          "name": "",
          "type": "uint256"
        }
      ],
      "name": "orderDetailsMapping",
      "outputs": [
        {
          "name": "i_createInvoice",
          "type": "uint256"
        },
        {
          "name": "e_confirmInvoice",
          "type": "uint256"
        },
        {
          "name": "i_requestLC",
          "type": "uint256"
        },
        {
          "name": "bi_approveLC",
          "type": "uint256"
        },
        {
          "name": "be_confirmLC",
          "type": "uint256"
        },
        {
          "name": "e_itemSend",
          "type": "uint256"
        },
        {
          "name": "ce_verification",
          "type": "uint256"
        },
        {
          "name": "ci_verification",
          "type": "uint256"
        },
        {
          "name": "i_itemReceive",
          "type": "uint256"
        }
      ],
      "payable": false,
      "stateMutability": "view",
      "type": "function"
    },
    {
      "constant": true,
      "inputs": [
        {
          "name": "",
          "type": "uint256"
        }
      ],
      "name": "invoiceDetailsMapping",
      "outputs": [
        {
          "name": "productId",
          "type": "uint256"
        },
        {
          "name": "productName",
          "type": "string"
        },
        {
          "name": "importerName",
          "type": "string"
        },
        {
          "name": "importerAddr",
          "type": "address"
        },
        {
          "name": "exporterName",
          "type": "string"
        },
        {
          "name": "exporterAddr",
          "type": "address"
        },
        {
          "name": "productQuantity",
          "type": "uint256"
        },
        {
          "name": "pricePerUnit",
          "type": "uint256"
        },
        {
          "name": "totalPrice",
          "type": "uint256"
        }
      ],
      "payable": false,
      "stateMutability": "view",
      "type": "function"
    },
    {
      "constant": true,
      "inputs": [],
      "name": "expAddress",
      "outputs": [
        {
          "name": "",
          "type": "address"
        }
      ],
      "payable": false,
      "stateMutability": "view",
      "type": "function"
    },
    {
      "constant": true,
      "inputs": [],
      "name": "expBankAddress",
      "outputs": [
        {
          "name": "",
          "type": "address"
        }
      ],
      "payable": false,
      "stateMutability": "view",
      "type": "function"
    },
    {
      "constant": true,
      "inputs": [],
      "name": "expCustAddress",
      "outputs": [
        {
          "name": "",
          "type": "address"
        }
      ],
      "payable": false,
      "stateMutability": "view",
      "type": "function"
    },
    {
      "constant": true,
      "inputs": [
        {
          "name": "",
          "type": "uint256"
        }
      ],
      "name": "fundDetailsMapping",
      "outputs": [
        {
          "name": "i_fundTransfer",
          "type": "uint256"
        },
        {
          "name": "bi_fundReceive",
          "type": "uint256"
        },
        {
          "name": "bi_fundTransfer",
          "type": "uint256"
        },
        {
          "name": "be_fundReceive",
          "type": "uint256"
        },
        {
          "name": "be_fundTransfer",
          "type": "uint256"
        },
        {
          "name": "e_fundReceive",
          "type": "uint256"
        }
      ],
      "payable": false,
      "stateMutability": "view",
      "type": "function"
    },
    {
      "constant": true,
      "inputs": [],
      "name": "impBankAddress",
      "outputs": [
        {
          "name": "",
          "type": "address"
        }
      ],
      "payable": false,
      "stateMutability": "view",
      "type": "function"
    },
    {
      "inputs": [
        {
          "name": "_a0",
          "type": "address"
        },
        {
          "name": "_a1",
          "type": "address"
        },
        {
          "name": "_a2",
          "type": "address"
        },
        {
          "name": "_a3",
          "type": "address"
        },
        {
          "name": "_a4",
          "type": "address"
        },
        {
          "name": "_a5",
          "type": "address"
        }
      ],
      "payable": false,
      "stateMutability": "nonpayable",
      "type": "constructor"
    },
    {
      "constant": false,
      "inputs": [
        {
          "name": "_productId",
          "type": "uint256"
        },
        {
          "name": "_productName",
          "type": "string"
        },
        {
          "name": "_importerName",
          "type": "string"
        },
        {
          "name": "_importerAddr",
          "type": "address"
        },
        {
          "name": "_exporterName",
          "type": "string"
        },
        {
          "name": "_exporterAddr",
          "type": "address"
        },
        {
          "name": "_productQuantity",
          "type": "uint256"
        },
        {
          "name": "_pricePerUnit",
          "type": "uint256"
        }
      ],
      "name": "setInvoiceDetails",
      "outputs": [],
      "payable": false,
      "stateMutability": "nonpayable",
      "type": "function"
    },
    {
      "constant": true,
      "inputs": [
        {
          "name": "_productId",
          "type": "uint256"
        }
      ],
      "name": "getInvoiceDetails",
      "outputs": [
        {
          "name": "_productName",
          "type": "string"
        },
        {
          "name": "_importerName",
          "type": "string"
        },
        {
          "name": "_importerAddr",
          "type": "address"
        },
        {
          "name": "_exporterName",
          "type": "string"
        },
        {
          "name": "_exporterAddr",
          "type": "address"
        },
        {
          "name": "_productQuantity",
          "type": "uint256"
        },
        {
          "name": "_pricePerUnit",
          "type": "uint256"
        },
        {
          "name": "_totalPrice",
          "type": "uint256"
        }
      ],
      "payable": false,
      "stateMutability": "view",
      "type": "function"
    },
    {
      "constant": false,
      "inputs": [
        {
          "name": "_productId",
          "type": "uint256"
        },
        {
          "name": "_importerBankName",
          "type": "string"
        },
        {
          "name": "_importerBankAddr",
          "type": "address"
        },
        {
          "name": "_exporterBankName",
          "type": "string"
        },
        {
          "name": "_exporterBankAddr",
          "type": "address"
        },
        {
          "name": "_totalAmount",
          "type": "uint256"
        }
      ],
      "name": "setLCReq",
      "outputs": [],
      "payable": false,
      "stateMutability": "nonpayable",
      "type": "function"
    },
    {
      "constant": true,
      "inputs": [
        {
          "name": "_productId",
          "type": "uint256"
        }
      ],
      "name": "getLCReq",
      "outputs": [
        {
          "name": "_productName",
          "type": "string"
        },
        {
          "name": "_importerName",
          "type": "string"
        },
        {
          "name": "_importerBankName",
          "type": "string"
        },
        {
          "name": "_importerBankAddr",
          "type": "address"
        },
        {
          "name": "_exporterName",
          "type": "string"
        },
        {
          "name": "_exporterBankName",
          "type": "string"
        },
        {
          "name": "_exporterBankAddr",
          "type": "address"
        },
        {
          "name": "_totalAmount",
          "type": "uint256"
        }
      ],
      "payable": false,
      "stateMutability": "view",
      "type": "function"
    },
    {
      "constant": false,
      "inputs": [
        {
          "name": "_productId",
          "type": "uint256"
        },
        {
          "name": "_amount",
          "type": "uint256"
        }
      ],
      "name": "importerPay",
      "outputs": [],
      "payable": true,
      "stateMutability": "payable",
      "type": "function"
    },
    {
      "constant": false,
      "inputs": [
        {
          "name": "_productId",
          "type": "uint256"
        },
        {
          "name": "_amt",
          "type": "uint256"
        },
        {
          "name": "_amount",
          "type": "uint256"
        }
      ],
      "name": "getImpBankAmount",
      "outputs": [],
      "payable": false,
      "stateMutability": "nonpayable",
      "type": "function"
    },
    {
      "constant": false,
      "inputs": [
        {
          "name": "_productId",
          "type": "uint256"
        },
        {
          "name": "_amount",
          "type": "uint256"
        }
      ],
      "name": "importerBankPay",
      "outputs": [],
      "payable": true,
      "stateMutability": "payable",
      "type": "function"
    },
    {
      "constant": false,
      "inputs": [
        {
          "name": "_productId",
          "type": "uint256"
        },
        {
          "name": "_amt",
          "type": "uint256"
        },
        {
          "name": "_amount",
          "type": "uint256"
        }
      ],
      "name": "getExpBankAmount",
      "outputs": [],
      "payable": true,
      "stateMutability": "payable",
      "type": "function"
    },
    {
      "constant": false,
      "inputs": [
        {
          "name": "_productId",
          "type": "uint256"
        },
        {
          "name": "_amount",
          "type": "uint256"
        }
      ],
      "name": "exporterBankPay",
      "outputs": [],
      "payable": true,
      "stateMutability": "payable",
      "type": "function"
    },
    {
      "constant": false,
      "inputs": [
        {
          "name": "_productId",
          "type": "uint256"
        },
        {
          "name": "_amt",
          "type": "uint256"
        },
        {
          "name": "_amount",
          "type": "uint256"
        }
      ],
      "name": "getExpAmount",
      "outputs": [],
      "payable": true,
      "stateMutability": "payable",
      "type": "function"
    },
    {
      "constant": false,
      "inputs": [
        {
          "name": "_productId",
          "type": "uint256"
        }
      ],
      "name": "setProdConfirm",
      "outputs": [],
      "payable": false,
      "stateMutability": "nonpayable",
      "type": "function"
    },
    {
      "constant": false,
      "inputs": [
        {
          "name": "_productId",
          "type": "uint256"
        }
      ],
      "name": "setLCApprove",
      "outputs": [],
      "payable": false,
      "stateMutability": "nonpayable",
      "type": "function"
    },
    {
      "constant": false,
      "inputs": [
        {
          "name": "_productId",
          "type": "uint256"
        }
      ],
      "name": "setLCConfirm",
      "outputs": [],
      "payable": false,
      "stateMutability": "nonpayable",
      "type": "function"
    },
    {
      "constant": false,
      "inputs": [
        {
          "name": "_productId",
          "type": "uint256"
        }
      ],
      "name": "setItemSend",
      "outputs": [],
      "payable": false,
      "stateMutability": "nonpayable",
      "type": "function"
    },
    {
      "constant": false,
      "inputs": [
        {
          "name": "_productId",
          "type": "uint256"
        }
      ],
      "name": "setExpCustoms",
      "outputs": [],
      "payable": false,
      "stateMutability": "nonpayable",
      "type": "function"
    },
    {
      "constant": false,
      "inputs": [
        {
          "name": "_productId",
          "type": "uint256"
        }
      ],
      "name": "setItemReceive",
      "outputs": [],
      "payable": false,
      "stateMutability": "nonpayable",
      "type": "function"
    },
    {
      "constant": false,
      "inputs": [
        {
          "name": "_productId",
          "type": "uint256"
        }
      ],
      "name": "setImpCustoms",
      "outputs": [],
      "payable": false,
      "stateMutability": "nonpayable",
      "type": "function"
    },
    {
      "constant": true,
      "inputs": [
        {
          "name": "_productId",
          "type": "uint256"
        }
      ],
      "name": "getOrderDetails",
      "outputs": [
        {
          "name": "_i_createInvoice",
          "type": "uint256"
        },
        {
          "name": "_e_confirmInvoice",
          "type": "uint256"
        },
        {
          "name": "_i_requestLC",
          "type": "uint256"
        },
        {
          "name": "_bi_approveLC",
          "type": "uint256"
        },
        {
          "name": "_be_confirmLC",
          "type": "uint256"
        },
        {
          "name": "_e_itemSend",
          "type": "uint256"
        },
        {
          "name": "_ce_verification",
          "type": "uint256"
        },
        {
          "name": "_ci_verification",
          "type": "uint256"
        },
        {
          "name": "_i_itemReceive",
          "type": "uint256"
        }
      ],
      "payable": false,
      "stateMutability": "view",
      "type": "function"
    },
    {
      "constant": true,
      "inputs": [
        {
          "name": "_productId",
          "type": "uint256"
        }
      ],
      "name": "getFundDetails",
      "outputs": [
        {
          "name": "_i_fundTransfer",
          "type": "uint256"
        },
        {
          "name": "_bi_fundReceive",
          "type": "uint256"
        },
        {
          "name": "_bi_fundTransfer",
          "type": "uint256"
        },
        {
          "name": "_be_fundReceive",
          "type": "uint256"
        },
        {
          "name": "_be_fundTransfer",
          "type": "uint256"
        },
        {
          "name": "_e_fundReceive",
          "type": "uint256"
        }
      ],
      "payable": false,
      "stateMutability": "view",
      "type": "function"
    }
  ],
  "bytecode": "0x608060405234801561001057600080fd5b5060405160c08061361e833981018060405260c081101561003057600080fd5b81019080805190602001909291908051906020019092919080519060200190929190805190602001909291908051906020019092919080519060200190929190505050856000806101000a81548173ffffffffffffffffffffffffffffffffffffffff021916908373ffffffffffffffffffffffffffffffffffffffff16021790555084600160006101000a81548173ffffffffffffffffffffffffffffffffffffffff021916908373ffffffffffffffffffffffffffffffffffffffff16021790555083600260006101000a81548173ffffffffffffffffffffffffffffffffffffffff021916908373ffffffffffffffffffffffffffffffffffffffff16021790555082600360006101000a81548173ffffffffffffffffffffffffffffffffffffffff021916908373ffffffffffffffffffffffffffffffffffffffff16021790555081600460006101000a81548173ffffffffffffffffffffffffffffffffffffffff021916908373ffffffffffffffffffffffffffffffffffffffff16021790555080600560006101000a81548173ffffffffffffffffffffffffffffffffffffffff021916908373ffffffffffffffffffffffffffffffffffffffff1602179055505050505050506134118061020d6000396000f3fe6080604052600436106101c25760003560e01c8063755f48e2116100f7578063aad51ca811610095578063e65c8e7011610064578063e65c8e70146113be578063ec7dd7bb14611430578063f925ea1e146114b7578063fe4170dc1461150e576101c2565b8063aad51ca8146112b2578063ae0f70fe146112f4578063c9fe57861461132f578063dbb16e6114611367576101c2565b80638f144ea2116100d15780638f144ea214610fa7578063909a708a146110195780639fbe56c914611220578063aa8ea35a1461125b576101c2565b8063755f48e214610d0a578063881352ea14610f185780638a92929b14610f6f576101c2565b80634d9c5d4e116101645780635c4677f51161013e5780635c4677f514610aa257806362c519cd14610c555780637270d6ef14610c97578063730098e114610ccf576101c2565b80634d9c5d4e1461096d5780634e9664eb146109c45780635bb9fbef14610a1b576101c2565b80632aff8cbb116101a05780632aff8cbb146103d15780633f1fb6f51461040c57806346c3d31e146106615780634a7c0f2a1461069c576101c2565b80630a60e03c146101c75780630fd107ea1461035b57806317ecb74514610396575b600080fd5b3480156101d357600080fd5b50610200600480360360208110156101ea57600080fd5b810190808035906020019092919050505061155d565b60405180878152602001806020018673ffffffffffffffffffffffffffffffffffffffff1673ffffffffffffffffffffffffffffffffffffffff168152602001806020018573ffffffffffffffffffffffffffffffffffffffff1673ffffffffffffffffffffffffffffffffffffffff168152602001848152602001838103835288818151815260200191508051906020019080838360005b838110156102b4578082015181840152602081019050610299565b50505050905090810190601f1680156102e15780820380516001836020036101000a031916815260200191505b50838103825286818151815260200191508051906020019080838360005b8381101561031a5780820151818401526020810190506102ff565b50505050905090810190601f1680156103475780820380516001836020036101000a031916815260200191505b509850505050505050505060405180910390f35b34801561036757600080fd5b506103946004803603602081101561037e57600080fd5b8101908080359060200190929190505050611709565b005b3480156103a257600080fd5b506103cf600480360360208110156103b957600080fd5b81019080803590602001909291905050506117c7565b005b3480156103dd57600080fd5b5061040a600480360360208110156103f457600080fd5b8101908080359060200190929190505050611885565b005b34801561041857600080fd5b5061065f600480360361010081101561043057600080fd5b81019080803590602001909291908035906020019064010000000081111561045757600080fd5b82018360208201111561046957600080fd5b8035906020019184600183028401116401000000008311171561048b57600080fd5b91908080601f016020809104026020016040519081016040528093929190818152602001838380828437600081840152601f19601f820116905080830192505050505050509192919290803590602001906401000000008111156104ee57600080fd5b82018360208201111561050057600080fd5b8035906020019184600183028401116401000000008311171561052257600080fd5b91908080601f016020809104026020016040519081016040528093929190818152602001838380828437600081840152601f19601f820116905080830192505050505050509192919290803573ffffffffffffffffffffffffffffffffffffffff169060200190929190803590602001906401000000008111156105a557600080fd5b8201836020820111156105b757600080fd5b803590602001918460018302840111640100000000831117156105d957600080fd5b91908080601f016020809104026020016040519081016040528093929190818152602001838380828437600081840152601f19601f820116905080830192505050505050509192919290803573ffffffffffffffffffffffffffffffffffffffff1690602001909291908035906020019092919080359060200190929190505050611943565b005b34801561066d57600080fd5b5061069a6004803603602081101561068457600080fd5b8101908080359060200190929190505050611bab565b005b3480156106a857600080fd5b506106d5600480360360208110156106bf57600080fd5b8101908080359060200190929190505050611c69565b604051808060200180602001806020018973ffffffffffffffffffffffffffffffffffffffff1673ffffffffffffffffffffffffffffffffffffffff16815260200180602001806020018873ffffffffffffffffffffffffffffffffffffffff1673ffffffffffffffffffffffffffffffffffffffff16815260200187815260200186810386528e818151815260200191508051906020019080838360005b8381101561078f578082015181840152602081019050610774565b50505050905090810190601f1680156107bc5780820380516001836020036101000a031916815260200191505b5086810385528d818151815260200191508051906020019080838360005b838110156107f55780820151818401526020810190506107da565b50505050905090810190601f1680156108225780820380516001836020036101000a031916815260200191505b5086810384528c818151815260200191508051906020019080838360005b8381101561085b578082015181840152602081019050610840565b50505050905090810190601f1680156108885780820380516001836020036101000a031916815260200191505b5086810383528a818151815260200191508051906020019080838360005b838110156108c15780820151818401526020810190506108a6565b50505050905090810190601f1680156108ee5780820380516001836020036101000a031916815260200191505b50868103825289818151815260200191508051906020019080838360005b8381101561092757808201518184015260208101905061090c565b50505050905090810190601f1680156109545780820380516001836020036101000a031916815260200191505b509d505050505050505050505050505060405180910390f35b34801561097957600080fd5b50610982612081565b604051808273ffffffffffffffffffffffffffffffffffffffff1673ffffffffffffffffffffffffffffffffffffffff16815260200191505060405180910390f35b3480156109d057600080fd5b506109d96120a7565b604051808273ffffffffffffffffffffffffffffffffffffffff1673ffffffffffffffffffffffffffffffffffffffff16815260200191505060405180910390f35b348015610a2757600080fd5b50610a5460048036036020811015610a3e57600080fd5b81019080803590602001909291905050506120cd565b604051808a8152602001898152602001888152602001878152602001868152602001858152602001848152602001838152602001828152602001995050505050505050505060405180910390f35b348015610aae57600080fd5b50610c53600480360360c0811015610ac557600080fd5b810190808035906020019092919080359060200190640100000000811115610aec57600080fd5b820183602082011115610afe57600080fd5b80359060200191846001830284011164010000000083111715610b2057600080fd5b91908080601f016020809104026020016040519081016040528093929190818152602001838380828437600081840152601f19601f820116905080830192505050505050509192919290803573ffffffffffffffffffffffffffffffffffffffff16906020019092919080359060200190640100000000811115610ba357600080fd5b820183602082011115610bb557600080fd5b80359060200191846001830284011164010000000083111715610bd757600080fd5b91908080601f016020809104026020016040519081016040528093929190818152602001838380828437600081840152601f19601f820116905080830192505050505050509192919290803573ffffffffffffffffffffffffffffffffffffffff1690602001909291908035906020019092919050505061211b565b005b610c9560048036036060811015610c6b57600080fd5b81019080803590602001909291908035906020019092919080359060200190929190505050612336565b005b610ccd60048036036040811015610cad57600080fd5b81019080803590602001909291908035906020019092919050505061245f565b005b348015610cdb57600080fd5b50610d0860048036036020811015610cf257600080fd5b8101908080359060200190929190505050612540565b005b348015610d1657600080fd5b50610d4360048036036020811015610d2d57600080fd5b81019080803590602001909291905050506125fd565b604051808a815260200180602001806020018973ffffffffffffffffffffffffffffffffffffffff1673ffffffffffffffffffffffffffffffffffffffff168152602001806020018873ffffffffffffffffffffffffffffffffffffffff1673ffffffffffffffffffffffffffffffffffffffff16815260200187815260200186815260200185815260200184810384528c818151815260200191508051906020019080838360005b83811015610e07578082015181840152602081019050610dec565b50505050905090810190601f168015610e345780820380516001836020036101000a031916815260200191505b5084810383528b818151815260200191508051906020019080838360005b83811015610e6d578082015181840152602081019050610e52565b50505050905090810190601f168015610e9a5780820380516001836020036101000a031916815260200191505b50848103825289818151815260200191508051906020019080838360005b83811015610ed3578082015181840152602081019050610eb8565b50505050905090810190601f168015610f005780820380516001836020036101000a031916815260200191505b509c5050505050505050505050505060405180910390f35b348015610f2457600080fd5b50610f2d612853565b604051808273ffffffffffffffffffffffffffffffffffffffff1673ffffffffffffffffffffffffffffffffffffffff16815260200191505060405180910390f35b610fa560048036036040811015610f8557600080fd5b810190808035906020019092919080359060200190929190505050612878565b005b348015610fb357600080fd5b50610fe060048036036020811015610fca57600080fd5b8101908080359060200190929190505050612959565b60405180878152602001868152602001858152602001848152602001838152602001828152602001965050505050505060405180910390f35b34801561102557600080fd5b506110526004803603602081101561103c57600080fd5b8101908080359060200190929190505050612a01565b6040518080602001806020018973ffffffffffffffffffffffffffffffffffffffff1673ffffffffffffffffffffffffffffffffffffffff168152602001806020018873ffffffffffffffffffffffffffffffffffffffff1673ffffffffffffffffffffffffffffffffffffffff16815260200187815260200186815260200185815260200184810384528c818151815260200191508051906020019080838360005b838110156111105780820151818401526020810190506110f5565b50505050905090810190601f16801561113d5780820380516001836020036101000a031916815260200191505b5084810383528b818151815260200191508051906020019080838360005b8381101561117657808201518184015260208101905061115b565b50505050905090810190601f1680156111a35780820380516001836020036101000a031916815260200191505b50848103825289818151815260200191508051906020019080838360005b838110156111dc5780820151818401526020810190506111c1565b50505050905090810190601f1680156112095780820380516001836020036101000a031916815260200191505b509b50505050505050505050505060405180910390f35b34801561122c57600080fd5b506112596004803603602081101561124357600080fd5b8101908080359060200190929190505050612ce9565b005b34801561126757600080fd5b50611270612da6565b604051808273ffffffffffffffffffffffffffffffffffffffff1673ffffffffffffffffffffffffffffffffffffffff16815260200191505060405180910390f35b6112f2600480360360608110156112c857600080fd5b81019080803590602001909291908035906020019092919080359060200190929190505050612dcc565b005b34801561130057600080fd5b5061132d6004803603602081101561131757600080fd5b8101908080359060200190929190505050612ef4565b005b6113656004803603604081101561134557600080fd5b810190808035906020019092919080359060200190929190505050612fb2565b005b34801561137357600080fd5b5061137c613093565b604051808273ffffffffffffffffffffffffffffffffffffffff1673ffffffffffffffffffffffffffffffffffffffff16815260200191505060405180910390f35b3480156113ca57600080fd5b506113f7600480360360208110156113e157600080fd5b81019080803590602001909291905050506130b9565b60405180878152602001868152602001858152602001848152602001838152602001828152602001965050505050505060405180910390f35b34801561143c57600080fd5b506114696004803603602081101561145357600080fd5b81019080803590602001909291905050506130f5565b604051808a8152602001898152602001888152602001878152602001868152602001858152602001848152602001838152602001828152602001995050505050505050505060405180910390f35b3480156114c357600080fd5b506114cc6131f1565b604051808273ffffffffffffffffffffffffffffffffffffffff1673ffffffffffffffffffffffffffffffffffffffff16815260200191505060405180910390f35b34801561151a57600080fd5b5061155b6004803603606081101561153157600080fd5b81019080803590602001909291908035906020019092919080359060200190929190505050613217565b005b6007602052806000526040600020600091509050806000015490806001018054600181600116156101000203166002900480601f01602080910402602001604051908101604052809291908181526020018280546001816001161561010002031660029004801561160f5780601f106115e45761010080835404028352916020019161160f565b820191906000526020600020905b8154815290600101906020018083116115f257829003601f168201915b5050505050908060020160009054906101000a900473ffffffffffffffffffffffffffffffffffffffff1690806003018054600181600116156101000203166002900480601f0160208091040260200160405190810160405280929190818152602001828054600181600116156101000203166002900480156116d35780601f106116a8576101008083540402835291602001916116d3565b820191906000526020600020905b8154815290600101906020018083116116b657829003601f168201915b5050505050908060040160009054906101000a900473ffffffffffffffffffffffffffffffffffffffff16908060050154905086565b600460009054906101000a900473ffffffffffffffffffffffffffffffffffffffff1673ffffffffffffffffffffffffffffffffffffffff163373ffffffffffffffffffffffffffffffffffffffff161461176357600080fd5b6001600860008381526020019081526020016000206005015414801561179f575060006008600083815260200190815260200160002060060154145b6117a857600080fd5b6001600860008381526020019081526020016000206006018190555050565b600260009054906101000a900473ffffffffffffffffffffffffffffffffffffffff1673ffffffffffffffffffffffffffffffffffffffff163373ffffffffffffffffffffffffffffffffffffffff161461182157600080fd5b6001600860008381526020019081526020016000206003015414801561185d575060006008600083815260200190815260200160002060040154145b61186657600080fd5b6001600860008381526020019081526020016000206004018190555050565b600160009054906101000a900473ffffffffffffffffffffffffffffffffffffffff1673ffffffffffffffffffffffffffffffffffffffff163373ffffffffffffffffffffffffffffffffffffffff16146118df57600080fd5b6001600860008381526020019081526020016000206007015414801561191b575060006008600083815260200190815260200160002060080154145b61192457600080fd5b6001600860008381526020019081526020016000206008018190555050565b600160009054906101000a900473ffffffffffffffffffffffffffffffffffffffff1673ffffffffffffffffffffffffffffffffffffffff163373ffffffffffffffffffffffffffffffffffffffff161461199d57600080fd5b6000600860008a815260200190815260200160002060000154146119c057600080fd5b87600660008a81526020019081526020016000206000018190555086600660008a81526020019081526020016000206001019080519060200190611a05929190613340565b5085600660008a81526020019081526020016000206002019080519060200190611a30929190613340565b5084600660008a815260200190815260200160002060030160006101000a81548173ffffffffffffffffffffffffffffffffffffffff021916908373ffffffffffffffffffffffffffffffffffffffff16021790555083600660008a81526020019081526020016000206004019080519060200190611ab0929190613340565b5082600660008a815260200190815260200160002060050160006101000a81548173ffffffffffffffffffffffffffffffffffffffff021916908373ffffffffffffffffffffffffffffffffffffffff16021790555081600660008a81526020019081526020016000206006018190555080600660008a8152602001908152602001600020600701819055506006600089815260200190815260200160002060070154600660008a81526020019081526020016000206006015402600660008a8152602001908152602001600020600801819055506001600860008a8152602001908152602001600020600001819055505050505050505050565b600360009054906101000a900473ffffffffffffffffffffffffffffffffffffffff1673ffffffffffffffffffffffffffffffffffffffff163373ffffffffffffffffffffffffffffffffffffffff1614611c0557600080fd5b60016008600083815260200190815260200160002060020154148015611c41575060006008600083815260200190815260200160002060030154145b611c4a57600080fd5b6001600860008381526020019081526020016000206003018190555050565b60608060606000606080600080600660008a81526020019081526020016000206001018054600181600116156101000203166002900480601f016020809104026020016040519081016040528092919081815260200182805460018160011615610100020316600290048015611d205780601f10611cf557610100808354040283529160200191611d20565b820191906000526020600020905b815481529060010190602001808311611d0357829003601f168201915b50505050509750600660008a81526020019081526020016000206002018054600181600116156101000203166002900480601f016020809104026020016040519081016040528092919081815260200182805460018160011615610100020316600290048015611dd15780601f10611da657610100808354040283529160200191611dd1565b820191906000526020600020905b815481529060010190602001808311611db457829003601f168201915b50505050509650600760008a81526020019081526020016000206003018054600181600116156101000203166002900480601f016020809104026020016040519081016040528092919081815260200182805460018160011615610100020316600290048015611e825780601f10611e5757610100808354040283529160200191611e82565b820191906000526020600020905b815481529060010190602001808311611e6557829003601f168201915b50505050509550600760008a815260200190815260200160002060040160009054906101000a900473ffffffffffffffffffffffffffffffffffffffff169450600660008a81526020019081526020016000206004018054600181600116156101000203166002900480601f016020809104026020016040519081016040528092919081815260200182805460018160011615610100020316600290048015611f6c5780601f10611f4157610100808354040283529160200191611f6c565b820191906000526020600020905b815481529060010190602001808311611f4f57829003601f168201915b50505050509350600760008a81526020019081526020016000206001018054600181600116156101000203166002900480601f01602080910402602001604051908101604052809291908181526020018280546001816001161561010002031660029004801561201d5780601f10611ff25761010080835404028352916020019161201d565b820191906000526020600020905b81548152906001019060200180831161200057829003601f168201915b50505050509250600760008a815260200190815260200160002060020160009054906101000a900473ffffffffffffffffffffffffffffffffffffffff169150600760008a8152602001908152602001600020600501549050919395975091939597565b600560009054906101000a900473ffffffffffffffffffffffffffffffffffffffff1681565b600160009054906101000a900473ffffffffffffffffffffffffffffffffffffffff1681565b60086020528060005260406000206000915090508060000154908060010154908060020154908060030154908060040154908060050154908060060154908060070154908060080154905089565b600160009054906101000a900473ffffffffffffffffffffffffffffffffffffffff1673ffffffffffffffffffffffffffffffffffffffff163373ffffffffffffffffffffffffffffffffffffffff161461217557600080fd5b6006600087815260200190815260200160002060080154811461219757600080fd5b600160086000888152602001908152602001600020600101541480156121d3575060006008600088815260200190815260200160002060020154145b6121dc57600080fd5b85600760008881526020019081526020016000206000018190555084600760008881526020019081526020016000206003019080519060200190612221929190613340565b50836007600088815260200190815260200160002060040160006101000a81548173ffffffffffffffffffffffffffffffffffffffff021916908373ffffffffffffffffffffffffffffffffffffffff160217905550826007600088815260200190815260200160002060010190805190602001906122a1929190613340565b50816007600088815260200190815260200160002060020160006101000a81548173ffffffffffffffffffffffffffffffffffffffff021916908373ffffffffffffffffffffffffffffffffffffffff16021790555080600760008881526020019081526020016000206005018190555060016008600088815260200190815260200160002060020181905550505050505050565b600260009054906101000a900473ffffffffffffffffffffffffffffffffffffffff1673ffffffffffffffffffffffffffffffffffffffff163373ffffffffffffffffffffffffffffffffffffffff161461239057600080fd5b600160096000858152602001908152602001600020600201541480156123cc575060006009600085815260200190815260200160002060030154145b6123d557600080fd5b600760008481526020019081526020016000206005015482146123f757600080fd5b3373ffffffffffffffffffffffffffffffffffffffff166108fc829081150290604051600060405180830381858888f1935050505015801561243d573d6000803e3d6000fd5b5060016009600085815260200190815260200160002060030181905550505050565b600260009054906101000a900473ffffffffffffffffffffffffffffffffffffffff1673ffffffffffffffffffffffffffffffffffffffff163373ffffffffffffffffffffffffffffffffffffffff16146124b957600080fd5b600160096000848152602001908152602001600020600301541480156124f5575060006009600084815260200190815260200160002060040154145b6124fe57600080fd5b6007600083815260200190815260200160002060050154811461252057600080fd5b600160096000848152602001908152602001600020600401819055505050565b6000809054906101000a900473ffffffffffffffffffffffffffffffffffffffff1673ffffffffffffffffffffffffffffffffffffffff163373ffffffffffffffffffffffffffffffffffffffff161461259957600080fd5b600160086000838152602001908152602001600020600401541480156125d5575060006008600083815260200190815260200160002060050154145b6125de57600080fd5b6001600860008381526020019081526020016000206005018190555050565b6006602052806000526040600020600091509050806000015490806001018054600181600116156101000203166002900480601f0160208091040260200160405190810160405280929190818152602001828054600181600116156101000203166002900480156126af5780601f10612684576101008083540402835291602001916126af565b820191906000526020600020905b81548152906001019060200180831161269257829003601f168201915b505050505090806002018054600181600116156101000203166002900480601f01602080910402602001604051908101604052809291908181526020018280546001816001161561010002031660029004801561274d5780601f106127225761010080835404028352916020019161274d565b820191906000526020600020905b81548152906001019060200180831161273057829003601f168201915b5050505050908060030160009054906101000a900473ffffffffffffffffffffffffffffffffffffffff1690806004018054600181600116156101000203166002900480601f0160208091040260200160405190810160405280929190818152602001828054600181600116156101000203166002900480156128115780601f106127e657610100808354040283529160200191612811565b820191906000526020600020905b8154815290600101906020018083116127f457829003601f168201915b5050505050908060050160009054906101000a900473ffffffffffffffffffffffffffffffffffffffff16908060060154908060070154908060080154905089565b6000809054906101000a900473ffffffffffffffffffffffffffffffffffffffff1681565b600160009054906101000a900473ffffffffffffffffffffffffffffffffffffffff1673ffffffffffffffffffffffffffffffffffffffff163373ffffffffffffffffffffffffffffffffffffffff16146128d257600080fd5b6001600860008481526020019081526020016000206006015414801561290e575060006009600084815260200190815260200160002060000154145b61291757600080fd5b6007600083815260200190815260200160002060050154811461293957600080fd5b600160096000848152602001908152602001600020600001819055505050565b60008060008060008060096000888152602001908152602001600020600001549550600960008881526020019081526020016000206001015494506009600088815260200190815260200160002060020154935060096000888152602001908152602001600020600301549250600960008881526020019081526020016000206004015491506009600088815260200190815260200160002060050154905091939550919395565b60608060006060600080600080600660008a81526020019081526020016000206001018054600181600116156101000203166002900480601f016020809104026020016040519081016040528092919081815260200182805460018160011615610100020316600290048015612ab85780601f10612a8d57610100808354040283529160200191612ab8565b820191906000526020600020905b815481529060010190602001808311612a9b57829003601f168201915b50505050509750600660008a81526020019081526020016000206002018054600181600116156101000203166002900480601f016020809104026020016040519081016040528092919081815260200182805460018160011615610100020316600290048015612b695780601f10612b3e57610100808354040283529160200191612b69565b820191906000526020600020905b815481529060010190602001808311612b4c57829003601f168201915b50505050509650600660008a815260200190815260200160002060030160009054906101000a900473ffffffffffffffffffffffffffffffffffffffff169550600660008a81526020019081526020016000206004018054600181600116156101000203166002900480601f016020809104026020016040519081016040528092919081815260200182805460018160011615610100020316600290048015612c535780601f10612c2857610100808354040283529160200191612c53565b820191906000526020600020905b815481529060010190602001808311612c3657829003601f168201915b50505050509450600660008a815260200190815260200160002060050160009054906101000a900473ffffffffffffffffffffffffffffffffffffffff169350600660008a8152602001908152602001600020600601549250600660008a8152602001908152602001600020600701549150600660008a8152602001908152602001600020600801549050919395975091939597565b6000809054906101000a900473ffffffffffffffffffffffffffffffffffffffff1673ffffffffffffffffffffffffffffffffffffffff163373ffffffffffffffffffffffffffffffffffffffff1614612d4257600080fd5b60016008600083815260200190815260200160002060000154148015612d7e575060006008600083815260200190815260200160002060010154145b612d8757600080fd5b6001600860008381526020019081526020016000206001018190555050565b600260009054906101000a900473ffffffffffffffffffffffffffffffffffffffff1681565b6000809054906101000a900473ffffffffffffffffffffffffffffffffffffffff1673ffffffffffffffffffffffffffffffffffffffff163373ffffffffffffffffffffffffffffffffffffffff1614612e2557600080fd5b60016009600085815260200190815260200160002060040154148015612e61575060006009600085815260200190815260200160002060050154145b612e6a57600080fd5b60076000848152602001908152602001600020600501548214612e8c57600080fd5b3373ffffffffffffffffffffffffffffffffffffffff166108fc829081150290604051600060405180830381858888f19350505050158015612ed2573d6000803e3d6000fd5b5060016009600085815260200190815260200160002060050181905550505050565b600560009054906101000a900473ffffffffffffffffffffffffffffffffffffffff1673ffffffffffffffffffffffffffffffffffffffff163373ffffffffffffffffffffffffffffffffffffffff1614612f4e57600080fd5b60016009600083815260200190815260200160002060010154148015612f8a575060006008600083815260200190815260200160002060070154145b612f9357600080fd5b6001600860008381526020019081526020016000206007018190555050565b600360009054906101000a900473ffffffffffffffffffffffffffffffffffffffff1673ffffffffffffffffffffffffffffffffffffffff163373ffffffffffffffffffffffffffffffffffffffff161461300c57600080fd5b60016008600084815260200190815260200160002060080154148015613048575060006009600084815260200190815260200160002060020154145b61305157600080fd5b6007600083815260200190815260200160002060050154811461307357600080fd5b600160096000848152602001908152602001600020600201819055505050565b600460009054906101000a900473ffffffffffffffffffffffffffffffffffffffff1681565b60096020528060005260406000206000915090508060000154908060010154908060020154908060030154908060040154908060050154905086565b6000806000806000806000806000600860008b8152602001908152602001600020600001549850600860008b8152602001908152602001600020600101549750600860008b8152602001908152602001600020600201549650600860008b8152602001908152602001600020600301549550600860008b8152602001908152602001600020600401549450600860008b8152602001908152602001600020600501549350600860008b8152602001908152602001600020600601549250600860008b8152602001908152602001600020600701549150600860008b81526020019081526020016000206008015490509193959799909294969850565b600360009054906101000a900473ffffffffffffffffffffffffffffffffffffffff1681565b600360009054906101000a900473ffffffffffffffffffffffffffffffffffffffff1673ffffffffffffffffffffffffffffffffffffffff163373ffffffffffffffffffffffffffffffffffffffff161461327157600080fd5b600160096000858152602001908152602001600020600001541480156132ad575060006009600085815260200190815260200160002060010154145b6132b657600080fd5b600760008481526020019081526020016000206005015482146132d857600080fd5b3373ffffffffffffffffffffffffffffffffffffffff166108fc829081150290604051600060405180830381858888f1935050505015801561331e573d6000803e3d6000fd5b5060016009600085815260200190815260200160002060010181905550505050565b828054600181600116156101000203166002900490600052602060002090601f016020900481019282601f1061338157805160ff19168380011785556133af565b828001600101855582156133af579182015b828111156133ae578251825591602001919060010190613393565b5b5090506133bc91906133c0565b5090565b6133e291905b808211156133de5760008160009055506001016133c6565b5090565b9056fea165627a7a723058208c5adb20993f6dd0b3933c0f7b3675425f8ed66dcb6963063b620f0de592f92c0029",
  "source": "pragma solidity ^0.5.0;\n\ncontract firmTrade{\n    //Structures\n    //To get the Invoice Details\n    struct invoiceDetails{\n        uint productId;\n        string productName;\n        string importerName;\n        address importerAddr;\n        string exporterName;\n        address exporterAddr;\n        uint productQuantity;\n        uint pricePerUnit;\n        uint totalPrice;\n    }\n    //To get the LC Request Details\n    struct lcReq{\n        uint productId;\n        string exporterBankName;\n        address exporterBankAddr;\n        string importerBankName;\n        address importerBankAddr;\n        uint totalAmount;\n    }\n    //To get the Order Confirmation Details\n    struct orderDetails{\n        uint i_createInvoice;\n        uint e_confirmInvoice;\n        uint i_requestLC;\n        uint bi_approveLC;\n        uint be_confirmLC;\n        uint e_itemSend;\n        uint ce_verification;\n        uint ci_verification;\n        uint i_itemReceive;\n    }\n    //To get Fund Transfer Confirmation Details\n    struct fundDetails{\n        uint i_fundTransfer;\n        uint bi_fundReceive;\n        uint bi_fundTransfer;\n        uint be_fundReceive;\n        uint be_fundTransfer;\n        uint e_fundReceive;\n\n    }\n    //Variables\n    address public expAddress;\n    address public impAddress;\n    address public expBankAddress;\n    address public impBankAddress;\n    address public expCustAddress;\n    address public impCustAddress;\n    // Modifiers\n    modifier onlyImporter{\n        require(msg.sender == impAddress);\n        _;\n    }\n    modifier onlyExporter{\n        require(msg.sender == expAddress);\n        _;\n    }\n    modifier onlyImpBank{\n        require(msg.sender == impBankAddress);\n        _;\n    }\n    modifier onlyExpBank{\n        require(msg.sender == expBankAddress);\n        _;\n    }\n    modifier onlyImpCust{\n        require(msg.sender == impCustAddress);\n        _;\n    }\n    modifier onlyExpCust{\n        require(msg.sender == expCustAddress);\n        _;\n    }\n    //Mappings\n    mapping(uint=>invoiceDetails) public invoiceDetailsMapping;\n    mapping(uint=>lcReq) public lcReqMapping;\n    mapping(uint=>orderDetails) public orderDetailsMapping;\n    mapping(uint=>fundDetails) public fundDetailsMapping;\n    //Constructor\n    constructor(address _a0, address _a1, address _a2, address _a3, address _a4, address _a5) public {\n        expAddress = _a0;\n        impAddress = _a1;\n        expBankAddress = _a2;\n        impBankAddress = _a3;\n        expCustAddress = _a4;\n        impCustAddress = _a5;\n    }\n    function setInvoiceDetails(uint _productId, string memory _productName, string memory _importerName, address _importerAddr, string memory _exporterName, address _exporterAddr, uint _productQuantity, uint _pricePerUnit) public onlyImporter{\n        require(orderDetailsMapping[_productId].i_createInvoice == 0);\n        invoiceDetailsMapping[_productId].productId = _productId;\n        invoiceDetailsMapping[_productId].productName = _productName;\n        invoiceDetailsMapping[_productId].importerName = _importerName;\n        invoiceDetailsMapping[_productId].importerAddr = _importerAddr;\n        invoiceDetailsMapping[_productId].exporterName = _exporterName;\n        invoiceDetailsMapping[_productId].exporterAddr = _exporterAddr;\n        invoiceDetailsMapping[_productId].productQuantity=_productQuantity;\n        invoiceDetailsMapping[_productId].pricePerUnit=_pricePerUnit;\n        invoiceDetailsMapping[_productId].totalPrice=invoiceDetailsMapping[_productId].productQuantity * invoiceDetailsMapping[_productId].pricePerUnit;\n        orderDetailsMapping[_productId].i_createInvoice = 1;\n    }\n    //Get Invoice Details\n    function getInvoiceDetails(uint _productId)public view returns(string memory _productName, string memory _importerName,address _importerAddr, string memory _exporterName,address _exporterAddr, uint _productQuantity, uint _pricePerUnit,uint _totalPrice){ \n        _productName = invoiceDetailsMapping[_productId].productName;\n        _importerName = invoiceDetailsMapping[_productId].importerName;\n        _importerAddr = invoiceDetailsMapping[_productId].importerAddr;\n        _exporterName = invoiceDetailsMapping[_productId].exporterName;\n        _exporterAddr = invoiceDetailsMapping[_productId].exporterAddr;\n        _productQuantity = invoiceDetailsMapping[_productId].productQuantity;\n        _pricePerUnit = invoiceDetailsMapping[_productId].pricePerUnit;\n        _totalPrice = invoiceDetailsMapping[_productId].totalPrice;\n    }\n    //Create LC Request\n    function setLCReq(uint _productId, string memory _importerBankName, address _importerBankAddr, string memory _exporterBankName,  address _exporterBankAddr, uint _totalAmount) public onlyImporter{\n    require(_totalAmount == invoiceDetailsMapping[_productId].totalPrice);\n    require(orderDetailsMapping[_productId].e_confirmInvoice == 1 && orderDetailsMapping[_productId].i_requestLC == 0);\n    lcReqMapping[_productId].productId = _productId;\n    lcReqMapping[_productId].importerBankName = _importerBankName;\n    lcReqMapping[_productId].importerBankAddr = _importerBankAddr;\n    lcReqMapping[_productId].exporterBankName = _exporterBankName;\n    lcReqMapping[_productId].exporterBankAddr = _exporterBankAddr;\n    lcReqMapping[_productId].totalAmount = _totalAmount;\n    orderDetailsMapping[_productId].i_requestLC = 1;\n    }\n    //Get LC Details\n    function getLCReq(uint _productId)public view returns(string memory _productName, string memory _importerName, string memory _importerBankName, address _importerBankAddr, string memory _exporterName, string memory _exporterBankName, address _exporterBankAddr,uint _totalAmount){\n    _productName = invoiceDetailsMapping[_productId].productName;\n    _importerName = invoiceDetailsMapping[_productId].importerName;\n    _importerBankName = lcReqMapping[_productId].importerBankName;\n    _importerBankAddr = lcReqMapping[_productId].importerBankAddr;\n    _exporterName = invoiceDetailsMapping[_productId].exporterName;\n    _exporterBankName = lcReqMapping[_productId].exporterBankName;\n    _exporterBankAddr = lcReqMapping[_productId].exporterBankAddr;\n    _totalAmount = lcReqMapping[_productId].totalAmount;\n    }\n    //To transfer the amount from importer's account to the contract\n    function importerPay(uint _productId, uint _amount) public payable onlyImporter{\n        require(orderDetailsMapping[_productId].ce_verification == 1 && fundDetailsMapping[_productId].i_fundTransfer == 0);\n        require(_amount == lcReqMapping[_productId].totalAmount);\n        fundDetailsMapping[_productId].i_fundTransfer = 1;\n    }\n    //To receive the amount from the contract account to importer's bank\n    function getImpBankAmount(uint _productId,uint _amt, uint _amount) public onlyImpBank {\n        require(fundDetailsMapping[_productId].i_fundTransfer == 1 && fundDetailsMapping[_productId].bi_fundReceive == 0);\n        require(_amt == lcReqMapping[_productId].totalAmount);\n        msg.sender.transfer(_amount);\n        fundDetailsMapping[_productId].bi_fundReceive = 1; \n    }\n    //To transfer the amount from importer's bank's account to the contract\n    function importerBankPay(uint _productId, uint _amount) public onlyImpBank payable{\n        require(orderDetailsMapping[_productId].i_itemReceive == 1 && fundDetailsMapping[_productId].bi_fundTransfer == 0);\n        require(_amount == lcReqMapping[_productId].totalAmount);\n        fundDetailsMapping[_productId].bi_fundTransfer = 1;  \n    }\n    //To receive the amount from the contract account to exporter's bank\n    function getExpBankAmount(uint _productId,uint _amt, uint _amount) public onlyExpBank payable{\n        require(fundDetailsMapping[_productId].bi_fundTransfer == 1 && fundDetailsMapping[_productId].be_fundReceive == 0);\n        require(_amt == lcReqMapping[_productId].totalAmount);\n        msg.sender.transfer(_amount);\n        fundDetailsMapping[_productId].be_fundReceive = 1;\n    }\n    //To transfer the amount from exporter's account to the contract\n    function exporterBankPay(uint _productId, uint _amount) public onlyExpBank payable{\n        require(fundDetailsMapping[_productId].be_fundReceive == 1 && fundDetailsMapping[_productId].be_fundTransfer == 0);\n        require(_amount == lcReqMapping[_productId].totalAmount);\n        fundDetailsMapping[_productId].be_fundTransfer = 1;\n    }\n    //To receive the amount from the contract account to exporter\n    function getExpAmount(uint _productId,uint _amt, uint _amount) public onlyExporter payable{\n        require(fundDetailsMapping[_productId].be_fundTransfer == 1 && fundDetailsMapping[_productId].e_fundReceive == 0);\n        require(_amt == lcReqMapping[_productId].totalAmount);\n        msg.sender.transfer(_amount);\n        fundDetailsMapping[_productId].e_fundReceive = 1;   \n    }\n    //Confirmations\n    //To confirm the Invoice by the Exporter\n    function setProdConfirm(uint _productId) public onlyExporter{\n        require(orderDetailsMapping[_productId].i_createInvoice == 1 && orderDetailsMapping[_productId].e_confirmInvoice == 0);\n        orderDetailsMapping[_productId].e_confirmInvoice = 1;\n    }\n    //To Set the Approval of LC by the Importer's Bank\n    function setLCApprove(uint _productId) public onlyImpBank{\n        require(orderDetailsMapping[_productId].i_requestLC == 1 && orderDetailsMapping[_productId].bi_approveLC == 0);\n        orderDetailsMapping[_productId].bi_approveLC = 1;\n    }\n    //To Set the Confirmation of the LC by the Exporter's Bank\n    function setLCConfirm(uint _productId) public onlyExpBank{\n        require(orderDetailsMapping[_productId].bi_approveLC == 1 && orderDetailsMapping[_productId].be_confirmLC == 0);\n        orderDetailsMapping[_productId].be_confirmLC = 1;\n    }\n    //To Set the Item Send Confirmation by the Exporter\n    function setItemSend(uint _productId) public onlyExporter{\n        require(orderDetailsMapping[_productId].be_confirmLC == 1 && orderDetailsMapping[_productId].e_itemSend == 0);\n        orderDetailsMapping[_productId].e_itemSend = 1;\n    }\n    //To Confirm the Verification by the Exporter's Customs\n    function setExpCustoms(uint _productId) public onlyExpCust{\n        require(orderDetailsMapping[_productId].e_itemSend == 1 && orderDetailsMapping[_productId].ce_verification == 0);\n        orderDetailsMapping[_productId].ce_verification = 1; \n    }\n    //To Set the Item Receival Confirmation by the Importer\n    function setItemReceive(uint _productId) public onlyImporter{\n        require(orderDetailsMapping[_productId].ci_verification == 1 && orderDetailsMapping[_productId].i_itemReceive == 0);\n        orderDetailsMapping[_productId].i_itemReceive = 1; \n    }\n    //To Confirm the Verification by the Importer's Customs\n    function setImpCustoms(uint _productId) public onlyImpCust{\n        require(fundDetailsMapping[_productId].bi_fundReceive == 1 && orderDetailsMapping[_productId].ci_verification == 0);\n        orderDetailsMapping[_productId].ci_verification = 1;\n    }\n    //To get the Order Confirmation Details Mapping \n    function getOrderDetails(uint _productId) public view returns(uint _i_createInvoice, uint _e_confirmInvoice, uint _i_requestLC, uint _bi_approveLC, uint _be_confirmLC, uint _e_itemSend, uint _ce_verification, uint _ci_verification, uint _i_itemReceive){\n        _i_createInvoice = orderDetailsMapping[_productId].i_createInvoice;\n        _e_confirmInvoice = orderDetailsMapping[_productId].e_confirmInvoice;\n        _i_requestLC = orderDetailsMapping[_productId].i_requestLC;\n        _bi_approveLC = orderDetailsMapping[_productId].bi_approveLC;\n        _be_confirmLC = orderDetailsMapping[_productId].be_confirmLC;\n        _e_itemSend = orderDetailsMapping[_productId].e_itemSend;\n        _ce_verification = orderDetailsMapping[_productId].ce_verification;\n        _ci_verification = orderDetailsMapping[_productId].ci_verification;\n        _i_itemReceive = orderDetailsMapping[_productId].i_itemReceive;\n\n    }\n    //To get the Fund Confirmation Details Mapping \n    function getFundDetails(uint _productId) public view returns(uint _i_fundTransfer, uint _bi_fundReceive, uint _bi_fundTransfer, uint _be_fundReceive, uint _be_fundTransfer, uint _e_fundReceive){\n        _i_fundTransfer = fundDetailsMapping[_productId].i_fundTransfer;\n        _bi_fundReceive = fundDetailsMapping[_productId].bi_fundReceive;\n        _bi_fundTransfer = fundDetailsMapping[_productId].bi_fundTransfer;\n        _be_fundReceive = fundDetailsMapping[_productId].be_fundReceive;\n        _be_fundTransfer = fundDetailsMapping[_productId].be_fundTransfer;\n        _e_fundReceive = fundDetailsMapping[_productId].e_fundReceive;\n\n    }\n}",
  "sourcePath": "/Users/mekha/ced-b3-g02/Project/contracts/firmTrade.sol",
  "compiler": {
    "name": "solc",
    "version": "0.5.8+commit.23d335f2.Emscripten.clang"
  },
  "schemaVersion": "3.0.11",
  "updatedAt": "2019-09-15T17:35:55.167Z",
  "devdoc": {
    "methods": {}
  },
  "userdoc": {
    "methods": {}
  }
}